:020000040000FA
:100000000C9462000C948A000C948A000C948A0070
:100010000C948A000C948A000C948A000C948A0038
:100020000C948A000C948A000C948A000C942A0385
:100030000C948A000C948A000C948A000C948A0018
:100040000C94E0020C948A000C94AE020C9488028A
:100050000C948A000C948A000C948A000C948A00F8
:100060000C948A000C948A000000000024002700F1
:100070002A0000000000250028002B0000000008D6
:10008000000201000003040700000000000000005F
:1000900000000000230026002900040404040404D6
:1000A0000404020202020202030303030303010227
:1000B00004081020408001020408102001020408F6
:1000C00010202B0411241FBECFEFD8E0DEBFCDBF20
:1000D00011E0A0E0B1E0EEEBFFE002C005900D9270
:1000E000AE31B107D9F721E0AEE1B1E001C01D9218
:1000F000AF3EB207E1F710E0C2E6D0E004C02197BE
:10010000FE010E94D707C136D107C9F70E948804B3
:100110000C94DD070C9400008F929F92AF92BF92D7
:10012000FF920F931F93CF93DF93F090EC012BE09E
:100130002F1508F44CC02091EE0108E512E0021BD7
:10014000110927FD1395000F111F000F111F20919A
:10015000ED01C8E8D0E0C21BD10927FDD395CC0F33
:10016000DD1FCC0FDD1F4E010D2E000CAA08BB08B1
:100170009801012E000C440B550B281939094A0926
:100180005B09DC010E94610624EB30E040E050E0B6
:100190000E943706820E931EA41EB51E8C169D0665
:1001A0002CF0E801801691060CF4E4012297CC0FA4
:1001B000DD1F2FB7F8948F2D90E0FC01EE0FFF1F8D
:1001C000E80FF91FE953FE4FD283C1832FBFDF91A0
:1001D000CF911F910F91FF90BF90AF909F908F9004
:1001E0000895AF92BF92CF92DF92EF92FF920F935A
:1001F0001F93CF93DF936C017B018B01040F151FBD
:10020000EB015E01AE18BF08C017D10759F0699124
:10021000D601ED91FC910190F081E02DC601099588
:10022000892B79F7C501DF91CF911F910F91FF9035
:10023000EF90DF90CF90BF90AF900895FC01538D69
:10024000448D252F30E0842F90E0821B930B5417B0
:1002500010F0CF96089501970895FC01918D828D3D
:10026000981761F0A28DAE0FBF2FB11D5D968C91D6
:10027000928D9F5F9F73928F90E008958FEF9FEF15
:100280000895FC01918D828D981731F0828DE80FD1
:10029000F11D858D90E008958FEF9FEF0895FC018B
:1002A000918D228D892F90E0805C9F4F821B910958
:1002B0008F73992708958AE291E00E944F0121E00F
:1002C000892B09F420E0822F089580E090E0892BAB
:1002D00029F00E945B0181110C9400000895FC013B
:1002E000A48DA80FB92FB11DA35ABF4F2C91848D97
:1002F00090E001968F739927848FA689B7892C93F4
:10030000A089B1898C91837080648C93938D848D46
:10031000981306C00288F389E02D80818F7D808349
:100320000895EF92FF920F931F93CF93DF93EC0109
:1003300081E0888F9B8D8C8D98131AC0E889F9898C
:10034000808185FF15C09FB7F894EE89FF8960838F
:10035000E889F98980818370806480839FBF81E010
:1003600090E0DF91CF911F910F91FF90EF90089552
:10037000F62E0B8D10E00F5F1F4F0F731127E02E2D
:100380008C8D8E110CC00FB607FCFACFE889F98965
:10039000808185FFF5CFCE010E946F01F1CFEB8DFB
:1003A000EC0FFD2FF11DE35AFF4FF0829FB7F89439
:1003B0000B8FEA89FB8980818062CFCFCF93DF9357
:1003C000EC01888D8823B9F0AA89BB89E889F9896D
:1003D0008C9185FD03C0808186FD0DC00FB607FCA2
:1003E000F7CF8C9185FFF2CF808185FFEDCFCE01D5
:1003F0000E946F01E9CFDF91CF91089590E0FC0159
:10040000E458FF4F2491FC01E255FF4F3491FC0169
:10041000E656FF4FE491EE23C9F0222339F0233052
:1004200001F1A8F4213019F1223029F1F0E0EE0FAA
:10043000FF1FEE58FF4FA591B4918FB7F894EC9140
:10044000611126C030953E233C938FBF089527301D
:10045000A9F02830C9F0243049F7809180008F7DC1
:1004600003C0809180008F7780938000DFCF84B5B8
:100470008F7784BDDBCF84B58F7DFBCF8091B000BB
:100480008F778093B000D2CF8091B0008F7DF9CF6D
:100490003E2BDACFCF93DF9390E0FC01E255FF4F84
:1004A000249186569F4FFC0184918823D1F090E0DF
:1004B000880F991FFC01E859FF4FA591B491FC01E9
:1004C000EE58FF4FC591D49161110EC09FB7F894BB
:1004D0008C91E22FE0958E238C932881E223E88390
:1004E0009FBFDF91CF9108958FB7F894EC91E22BE5
:1004F000EC938FBFF6CFFC0101900020E9F7319714
:10050000AF01481B590BBC018AE291E00C94F10049
:100510001F920F920FB60F9211242F933F934F9378
:100520005F936F937F938F939F93AF93BF93EF935B
:10053000FF938AE291E00E946F01FF91EF91BF91DA
:10054000AF919F918F917F916F915F914F913F916B
:100550002F910F900FBE0F901F9018951F920F9222
:100560000FB60F9211242F938F939F93EF93FF93C6
:10057000E0913A01F0913B018081E0914001F091DE
:10058000410182FD1BC09081809143018F5F8F7379
:1005900020914401821741F0E0914301F0E0E65DD3
:1005A000FE4F958F80934301FF91EF919F918F9123
:1005B0002F910F900FBE0F901F9018958081F4CF50
:1005C0001F920F920FB60F9211242F933F938F9388
:1005D0009F93AF93BF938091240190912501A091A7
:1005E0002601B09127013091230123E0230F2D37FD
:1005F00058F50196A11DB11D20932301809324017C
:1006000090932501A0932601B093270180911F01AB
:1006100090912001A0912101B09122010196A11D8C
:10062000B11D80931F0190932001A0932101B093ED
:100630002201BF91AF919F918F913F912F910F9088
:100640000FBE0F901F90189526E8230F0296A11D4C
:10065000B11DD2CF1F920F920FB60F9211242F937C
:100660003F934F935F936F937F938F939F93AF933A
:10067000BF93CF93DF93EF93FF9380911E01C091BF
:10068000EB01D0E087FF24C0109285001092840017
:1006900080911E018F5F80931E0180911E01082EA4
:1006A000000C990B8C179D0724F480911E018C304F
:1006B000C4F18091840090918500049680349C4917
:1006C00008F47AC08091840090918500049676C0E9
:1006D00080911E01082E000C990B8C179D07C4F603
:1006E000E0911E018E2FEE0F990BFC01EE0FFF1F04
:1006F000E80FF91FE953FE4F808186FFC9CFE091D3
:100700001E018E2FEE0F990BFC01EE0FFF1FE80F5D
:10071000F91FE953FE4F808160E08F730E94FE0154
:10072000B7CF2091840030918500E0911E018E2F7B
:10073000EE0F990BFC01EE0FFF1FE80FF91FE953B5
:10074000FE4F81819281820F931F90938900809345
:100750008800E0911E018E2FEE0F990BFC01EE0F29
:10076000FF1FE80FF91FE953FE4F808186FF11C07C
:10077000E0911E018E2FEE0F990BFC01EE0FFF1F73
:10078000E80FF91FE953FE4F808161E08F730E94EB
:10079000FE01FF91EF91DF91CF91BF91AF919F91BA
:1007A0008F917F916F915F914F913F912F910F901A
:1007B0000FBE0F901F90189580E49CE990938900DC
:1007C000809388008FEF80931E01E3CFCF92DF925A
:1007D000EF92FF920F931F93E82FF92F05C001505E
:1007E00011092109310961F1908196239417B9F318
:1007F00005C0015011092109310911F19081962399
:100800009413F7CFC12CD12CE12CF12C0AC08FEF1F
:10081000C81AD80AE80AF80A0C151D052E053F0566
:1008200079F080818623841791F36C2D7D2D8E2D98
:100830009F2D1F910F91FF90EF90DF90CF90089523
:1008400060E070E080E090E01F910F91FF90EF90EA
:10085000DF90CF90089510922D0110922C0188EE18
:1008600093E0A0E0B0E080932E0190932F01A0933D
:100870003001B093310184E091E090932B0180939B
:100880002A0185EC90E0909337018093360184EC47
:1008900090E0909339018093380180EC90E0909340
:1008A0003B0180933A0181EC90E090933D0180936D
:1008B0003C0182EC90E090933F0180933E0186ECF6
:1008C00090E0909341018093400110924301109277
:1008D000440110924501109246018091EB018C3049
:1008E00098F491E0980F9093EB018093EC0190E0E5
:1008F000FC01EE0FFF1FE80FF91FE953FE4F88EBD5
:100900009BE09283818308958FEF8093EC0108959B
:10091000CF93DF93CDB7DEB7A1970FB6F894DEBFC4
:100920000FBECDBF789484B5826084BD84B58160EC
:1009300084BD85B5826085BD85B5816085BD8091AA
:100940006E00816080936E00109281008091810022
:10095000826080938100809181008160809381001A
:10096000809180008160809380008091B1008460DC
:100970008093B1008091B00081608093B00080913D
:100980007A00846080937A0080917A0082608093FC
:100990007A0080917A00816080937A0080917A0059
:1009A000806880937A001092C1008091EC018C30B5
:1009B00008F051C061E083E00E944A028091EC019E
:1009C000282F30E0F901EE0FFF1FE20FF31FE9536C
:1009D000FE4F9081907C936090831092ED01109275
:1009E000EE012CE0622F0E94CB07829FB001112400
:1009F00030E020E0AB01420F531FFA01EE0FFF1F62
:100A0000E40FF51FE953FE4F908196FD16C02F5F4E
:100A10003F4F2C30310571F781110FC010928000CB
:100A200082E0809381001092850010928400B19A38
:100A300080916F00826080936F00E091EC018E2FB7
:100A400090E0FC01EE0FFF1FE80FF91FE953FE4F86
:100A500080818064808361E085E00E944A0260E0DA
:100A600086E00E944A02E0913A01F0913B0182E067
:100A70008083E0913601F09137011082E0913801D6
:100A8000F09139018FEC808310924201E0913E0198
:100A9000F0913F0186E08083E0913C01F0913D01BF
:100AA000808180618083E0913C01F0913D018081F3
:100AB00088608083E0913C01F0913D0180818068F5
:100AC0008083E0913C01F0913D0180818F7D8083A6
:100AD00093E0E92EF12C23E2C22ED12C34EB232E0D
:100AE00030E0332E4AE0842E912CA12CB12C60E012
:100AF00085E00E94FE01C7010197F1F761E085E002
:100B00000E94FE01C6010197F1F760E085E00E94B6
:100B1000FE01F1016491E0EAF0E08491E82FF0E059
:100B2000EE0FFF1FE057FF4F8591949100E412E410
:100B30002FE030E0462F0E94E60361157105810524
:100B4000910529F06F5F7F4F8F4F9F4F9F70072E4A
:100B5000000C880B990B0E94D20626E933E44BE087
:100B60005DE30E94360720E030E040E05FE30E9452
:100B700036070E949A06709329016093280182E14A
:100B800091E00E947B024090280150902901052CA1
:100B9000000C6608770877FE44C06DE28AE291E0B7
:100BA0000E94910122273327A901241935094609FA
:100BB000570919A2CE0181963C01CA01B901A501CC
:100BC00094010E946906605DF30162933F01211563
:100BD00031054105510589F76114710419F0C3010C
:100BE0000E947B028BE191E00E947B0280912801B0
:100BF000909129019C01295C31092336310538F592
:100C000087E890E00E948C0080E090E0892B09F456
:100C10006ECF0E945B01882309F469CF0E94000017
:100C200066CFA301920119A2CE0181963C01CA01AF
:100C3000B901A50194010E946906605DF301629308
:100C40003F01211531054105510589F7C5CF9C01AB
:100C5000255631092236310518F48AE590E0D2CFC5
:100C600001978236910580F68DE290E0CBCF052E7C
:100C700097FB1EF400940E944E0657FD07D00E9479
:100C8000690607FC03D04EF40C944E06509540952F
:100C9000309521953F4F4F4F5F4F08959095809528
:100CA000709561957F4F8F4F9F4F08950E948B06DF
:100CB000A59F900DB49F900DA49F800D911D1124B0
:100CC0000895B7FF0C9456060E945606821B930B9C
:100CD0000895A1E21A2EAA1BBB1BFD010DC0AA1F7D
:100CE000BB1FEE1FFF1FA217B307E407F50720F095
:100CF000A21BB30BE40BF50B661F771F881F991F10
:100D00001A9469F760957095809590959B01AC0158
:100D1000BD01CF010895A29FB001B39FC001A39F61
:100D2000700D811D1124911DB29F700D811D112424
:100D3000911D08950E94A1066894B1110C9430078A
:100D400008950E94150788F09F5798F0B92F9927AA
:100D5000B751B0F0E1F0660F771F881F991F1AF0A6
:100D6000BA95C9F714C0B13091F00E942F07B1E0D5
:100D700008950C942F07672F782F8827B85F39F0D4
:100D8000B93FCCF3869577956795B395D9F73EF43F
:100D900090958095709561957F4F8F4F9F4F0895E7
:100DA000E89409C097FB3EF4909580957095619505
:100DB0007F4F8F4F9F4F9923A9F0F92F96E9BB27BB
:100DC0009395F695879577956795B795F111F8CF37
:100DD000FAF4BB0F11F460FF1BC06F5F7F4F8F4FA2
:100DE0009F4F16C0882311F096E911C0772321F098
:100DF0009EE8872F762F05C0662371F096E8862F30
:100E000070E060E02AF09A95660F771F881FDAF786
:100E1000880F9695879597F9089557FD9058440F38
:100E2000551F59F05F3F71F04795880F97FB991F49
:100E300061F09F3F79F08795089512161306140606
:100E4000551FF2CF4695F1DF08C016161706180693
:100E5000991FF1CF86957105610508940895E8946E
:100E6000BB2766277727CB0197F908950E9449078A
:100E70000C94BA070E94AC0738F00E94B30720F028
:100E8000952311F00C94A3070C94A90711240C943A
:100E900030070E940D0770F3959FC1F3950F50E046
:100EA000551F629FF001729FBB27F00DB11D639F1C
:100EB000AA27F00DB11DAA1F649F6627B00DA11DC2
:100EC000661F829F2227B00DA11D621F739FB00D68
:100ED000A11D621F839FA00D611D221F749F3327D8
:100EE000A00D611D231F849F600D211D822F762F71
:100EF0006A2F11249F5750409AF0F1F088234AF04E
:100F0000EE0FFF1FBB1F661F771F881F91505040B9
:100F1000A9F79E3F510580F00C94A3070C9430076D
:100F20005F3FE4F3983ED4F3869577956795B79540
:100F3000F795E7959F5FC1F7FE2B880F911D96955A
:100F4000879597F9089597F99F6780E870E060E0CA
:100F500008959FEF80EC089500240A941616170652
:100F600018060906089500240A941216130614069A
:100F700005060895092E0394000C11F4882352F0FD
:100F8000BB0F40F4BF2B11F460FF04C06F5F7F4FB5
:100F90008F4F9F4F0895991B79E004C0991F9617B2
:100FA00008F0961B881F7A95C9F780950895EE0F73
:100FB000FF1F0590F491E02D0994F894FFCF0000F5
:100FC00000009101F1001E01DE014F012D014101E0
:0C0FD00044697374616E6365000D0A00D3
:107E0000112484B714BE81FFF0D085E080938100F7
:107E100082E08093C00088E18093C10086E0809377
:107E2000C20080E18093C4008EE0C9D0259A86E02C
:107E300020E33CEF91E0309385002093840096BBD3
:107E4000B09BFECF1D9AA8958150A9F7CC24DD24C4
:107E500088248394B5E0AB2EA1E19A2EF3E0BF2EE7
:107E6000A2D0813461F49FD0082FAFD0023811F036
:107E7000013811F484E001C083E08DD089C08234E0
:107E800011F484E103C0853419F485E0A6D080C0E4
:107E9000853579F488D0E82EFF2485D0082F10E0AE
:107EA000102F00270E291F29000F111F8ED06801E7
:107EB0006FC0863521F484E090D080E0DECF843638
:107EC00009F040C070D06FD0082F6DD080E0C81688
:107ED00080E7D80618F4F601B7BEE895C0E0D1E017
:107EE00062D089930C17E1F7F0E0CF16F0E7DF06D8
:107EF00018F0F601B7BEE89568D007B600FCFDCFD4
:107F0000A601A0E0B1E02C9130E011968C91119780
:107F100090E0982F8827822B932B1296FA010C0160
:107F200087BEE89511244E5F5F4FF1E0A038BF0790
:107F300051F7F601A7BEE89507B600FCFDCF97BE46
:107F4000E89526C08437B1F42ED02DD0F82E2BD052
:107F50003CD0F601EF2C8F010F5F1F4F84911BD097
:107F6000EA94F801C1F70894C11CD11CFA94CF0C13
:107F7000D11C0EC0853739F428D08EE10CD085E9AC
:107F80000AD08FE07ACF813511F488E018D01DD067
:107F900080E101D065CF982F8091C00085FFFCCF94
:107FA0009093C60008958091C00087FFFCCF809118
:107FB000C00084FD01C0A8958091C6000895E0E648
:107FC000F0E098E1908380830895EDDF803219F02E
:107FD00088E0F5DFFFCF84E1DECF1F93182FE3DFCA
:107FE0001150E9F7F2DF1F91089580E0E8DFEE27F6
:047FF000FF270994CA
:027FFE00040479
:00000001FF
